{
    "contractName": "PatientsFactory",
    "abi": [
        {
            "anonymous": false,
            "inputs": [
                {
                    "indexed": true,
                    "internalType": "address",
                    "name": "previousOwner",
                    "type": "address"
                },
                {
                    "indexed": true,
                    "internalType": "address",
                    "name": "newOwner",
                    "type": "address"
                }
            ],
            "name": "OwnershipTransferred",
            "type": "event"
        },
        {
            "inputs": [
                {
                    "internalType": "address",
                    "name": "_clinicAddress",
                    "type": "address"
                }
            ],
            "name": "addClinic",
            "outputs": [],
            "stateMutability": "nonpayable",
            "type": "function"
        },
        {
            "inputs": [
                {
                    "internalType": "address",
                    "name": "",
                    "type": "address"
                }
            ],
            "name": "addressToPatient",
            "outputs": [
                {
                    "internalType": "address",
                    "name": "",
                    "type": "address"
                }
            ],
            "stateMutability": "view",
            "type": "function"
        },
        {
            "inputs": [
                {
                    "internalType": "address",
                    "name": "",
                    "type": "address"
                }
            ],
            "name": "clinics",
            "outputs": [
                {
                    "internalType": "bool",
                    "name": "",
                    "type": "bool"
                }
            ],
            "stateMutability": "view",
            "type": "function"
        },
        {
            "inputs": [],
            "name": "isOwner",
            "outputs": [
                {
                    "internalType": "bool",
                    "name": "",
                    "type": "bool"
                }
            ],
            "stateMutability": "view",
            "type": "function"
        },
        {
            "inputs": [
                {
                    "internalType": "address",
                    "name": "_address",
                    "type": "address"
                }
            ],
            "name": "newPatient",
            "outputs": [
                {
                    "internalType": "address",
                    "name": "",
                    "type": "address"
                }
            ],
            "stateMutability": "nonpayable",
            "type": "function"
        },
        {
            "inputs": [],
            "name": "owner",
            "outputs": [
                {
                    "internalType": "address",
                    "name": "",
                    "type": "address"
                }
            ],
            "stateMutability": "view",
            "type": "function"
        },
        {
            "inputs": [],
            "name": "patientsNum",
            "outputs": [
                {
                    "internalType": "uint256",
                    "name": "",
                    "type": "uint256"
                }
            ],
            "stateMutability": "view",
            "type": "function"
        },
        {
            "inputs": [],
            "name": "renounceOwnership",
            "outputs": [],
            "stateMutability": "nonpayable",
            "type": "function"
        },
        {
            "inputs": [
                {
                    "internalType": "address",
                    "name": "newOwner",
                    "type": "address"
                }
            ],
            "name": "transferOwnership",
            "outputs": [],
            "stateMutability": "nonpayable",
            "type": "function"
        }
    ],
    "bytecode": "60806040526000600381905561001c6001600160e01b0361006b16565b600080546001600160a01b0319166001600160a01b0383169081178255604051929350917f8be0079c531659141344cd1fd0a4f28419497f9722a3daafe3b4186f6b6457e0908290a35061006f565b3390565b6113068061007e6000396000f3fe608060405234801561001057600080fd5b50600436106100935760003560e01c80638da5cb5b116100665780638da5cb5b1461011c5780638f32d59b14610140578063f2fde38b14610148578063f3de63e61461016e578063fa5717821461019457610093565b806316aaa4c014610098578063286afaf2146100c057806364607751146100da578063715018a614610114575b600080fd5b6100be600480360360208110156100ae57600080fd5b50356001600160a01b03166101ba565b005b6100c8610237565b60408051918252519081900360200190f35b610100600480360360208110156100f057600080fd5b50356001600160a01b031661023d565b604080519115158252519081900360200190f35b6100be610252565b6101246102f5565b604080516001600160a01b039092168252519081900360200190f35b610100610304565b6100be6004803603602081101561015e57600080fd5b50356001600160a01b0316610328565b6101246004803603602081101561018457600080fd5b50356001600160a01b031661038d565b610124600480360360208110156101aa57600080fd5b50356001600160a01b03166103a8565b6101c2610304565b610213576040805162461bcd60e51b815260206004820181905260248201527f4f776e61626c653a2063616c6c6572206973206e6f7420746865206f776e6572604482015290519081900360640190fd5b6001600160a01b03166000908152600460205260409020805460ff19166001179055565b60035481565b60046020526000908152604090205460ff1681565b61025a610304565b6102ab576040805162461bcd60e51b815260206004820181905260248201527f4f776e61626c653a2063616c6c6572206973206e6f7420746865206f776e6572604482015290519081900360640190fd5b600080546040516001600160a01b03909116907f8be0079c531659141344cd1fd0a4f28419497f9722a3daafe3b4186f6b6457e0908390a3600080546001600160a01b0319169055565b6000546001600160a01b031690565b600080546001600160a01b0316610319610558565b6001600160a01b031614905090565b610330610304565b610381576040805162461bcd60e51b815260206004820181905260248201527f4f776e61626c653a2063616c6c6572206973206e6f7420746865206f776e6572604482015290519081900360640190fd5b61038a8161055c565b50565b6001602052600090815260409020546001600160a01b031681565b3360009081526004602052604081205460ff1661040c576040805162461bcd60e51b815260206004820152601860248201527f4f6e6c7920636c696e6963732061726520616c6c6f7765640000000000000000604482015290519081900360640190fd5b6001600160a01b038281166000908152600160205260409020541615610471576040805162461bcd60e51b815260206004820152601560248201527420b2323932b9b99020b63932b0b23c902a30b5b2b760591b604482015290519081900360640190fd5b600030604051610480906105fc565b6001600160a01b03909116815260405190819003602001906000f0801580156104ad573d6000803e3d6000fd5b509050806001600160a01b031663f2fde38b846040518263ffffffff1660e01b815260040180826001600160a01b03166001600160a01b03168152602001915050600060405180830381600087803b15801561050857600080fd5b505af115801561051c573d6000803e3d6000fd5b505050506001600160a01b03928316600090815260016020526040902080546001600160a01b0319169184169190911790819055909116919050565b3390565b6001600160a01b0381166105a15760405162461bcd60e51b81526004018080602001828103825260268152602001806112ab6026913960400191505060405180910390fd5b600080546040516001600160a01b03808516939216917f8be0079c531659141344cd1fd0a4f28419497f9722a3daafe3b4186f6b6457e091a3600080546001600160a01b0319166001600160a01b0392909216919091179055565b610ca18061060a8339019056fe608060405234801561001057600080fd5b50604051610ca1380380610ca18339818101604052602081101561003357600080fd5b505160006100486001600160e01b036100b716565b600080546001600160a01b0319166001600160a01b0383169081178255604051929350917f8be0079c531659141344cd1fd0a4f28419497f9722a3daafe3b4186f6b6457e0908290a350600280546001600160a01b0319166001600160a01b03929092169190911790556100bb565b3390565b610bd7806100ca6000396000f3fe608060405234801561001057600080fd5b50600436106100625760003560e01c80633446106714610067578063715018a6146100a05780638da5cb5b146100aa5780638f32d59b146100b257806396e8d14c146100ce578063f2fde38b146101e2575b600080fd5b6100846004803603602081101561007d57600080fd5b5035610208565b604080516001600160a01b039092168252519081900360200190f35b6100a861022f565b005b6100846102d2565b6100ba6102e1565b604080519115158252519081900360200190f35b6100a8600480360360608110156100e457600080fd5b8101906020810181356401000000008111156100ff57600080fd5b82018360208201111561011157600080fd5b8035906020019184600183028401116401000000008311171561013357600080fd5b91939092909160208101903564010000000081111561015157600080fd5b82018360208201111561016357600080fd5b8035906020019184600183028401116401000000008311171561018557600080fd5b9193909290916020810190356401000000008111156101a357600080fd5b8201836020820111156101b557600080fd5b803590602001918460018302840111640100000000831117156101d757600080fd5b509092509050610305565b6100a8600480360360208110156101f857600080fd5b50356001600160a01b03166104fb565b6001818154811061021557fe5b6000918252602090912001546001600160a01b0316905081565b6102376102e1565b610288576040805162461bcd60e51b815260206004820181905260248201527f4f776e61626c653a2063616c6c6572206973206e6f7420746865206f776e6572604482015290519081900360640190fd5b600080546040516001600160a01b03909116907f8be0079c531659141344cd1fd0a4f28419497f9722a3daafe3b4186f6b6457e0908390a3600080546001600160a01b0319169055565b6000546001600160a01b031690565b600080546001600160a01b03166102f6610560565b6001600160a01b031614905090565b60025460408051636460775160e01b815233600482015290516001600160a01b0390921691636460775191602480820192602092909190829003018186803b15801561035057600080fd5b505afa158015610364573d6000803e3d6000fd5b505050506040513d602081101561037a57600080fd5b50516103cd576040805162461bcd60e51b815260206004820152601860248201527f4f6e6c7920636c696e6963732061726520616c6c6f7765640000000000000000604482015290519081900360640190fd5b600086866103d96102d2565b87873388886040516103ea90610604565b6001600160a01b0380881660208301528416606082015260a0808252810188905280604081016080820160c083018c8c80828437600083820152601f01601f191690910185810384528981526020019050898980828437600083820152601f01601f1916909101858103835286815260200190508686808284376000838201819052604051601f909201601f19169093018190039e509c50909a5050505050505050505050f0801580156104a2573d6000803e3d6000fd5b506001805480820182556000919091527fb10e2d527612073b26eecdfd717e6a320cf44b4afac2b0732d9fcbe2b7fa0cf60180546001600160a01b0319166001600160a01b039290921691909117905550505050505050565b6105036102e1565b610554576040805162461bcd60e51b815260206004820181905260248201527f4f776e61626c653a2063616c6c6572206973206e6f7420746865206f776e6572604482015290519081900360640190fd5b61055d81610564565b50565b3390565b6001600160a01b0381166105a95760405162461bcd60e51b8152600401808060200182810382526026815260200180610b7c6026913960400191505060405180910390fd5b600080546040516001600160a01b03808516939216917f8be0079c531659141344cd1fd0a4f28419497f9722a3daafe3b4186f6b6457e091a3600080546001600160a01b0319166001600160a01b0392909216919091179055565b61056a806106128339019056fe608060405234801561001057600080fd5b5060405161056a38038061056a833981810160405260a081101561003357600080fd5b810190808051604051939291908464010000000082111561005357600080fd5b90830190602082018581111561006857600080fd5b825164010000000081118282018810171561008257600080fd5b82525081516020918201929091019080838360005b838110156100af578181015183820152602001610097565b50505050905090810190601f1680156100dc5780820380516001836020036101000a031916815260200191505b5060408181526020830151920180519294919391928464010000000082111561010457600080fd5b90830190602082018581111561011957600080fd5b825164010000000081118282018810171561013357600080fd5b82525081516020918201929091019080838360005b83811015610160578181015183820152602001610148565b50505050905090810190601f16801561018d5780820380516001836020036101000a031916815260200191505b506040818152602083015192018051929491939192846401000000008211156101b557600080fd5b9083019060208201858111156101ca57600080fd5b82516401000000008111828201881017156101e457600080fd5b82525081516020918201929091019080838360005b838110156102115781810151838201526020016101f9565b50505050905090810190601f16801561023e5780820380516001836020036101000a031916815260200191505b5060405250508551610258915060009060208801906102b7565b506001600160a01b03841660009081526001602090815260409091208451610282928601906102b7565b506001600160a01b038216600090815260016020908152604090912082516102ac928401906102b7565b505050505050610352565b828054600181600116156101000203166002900490600052602060002090601f016020900481019282601f106102f857805160ff1916838001178555610325565b82800160010185558215610325579182015b8281111561032557825182559160200191906001019061030a565b50610331929150610335565b5090565b61034f91905b80821115610331576000815560010161033b565b90565b610209806103616000396000f3fe608060405234801561001057600080fd5b50600436106100365760003560e01c806306240aca1461003b57806373d4a13a146100d6575b600080fd5b6100616004803603602081101561005157600080fd5b50356001600160a01b03166100de565b6040805160208082528351818301528351919283929083019185019080838360005b8381101561009b578181015183820152602001610083565b50505050905090810190601f1680156100c85780820380516001836020036101000a031916815260200191505b509250505060405180910390f35b610061610178565b60016020818152600092835260409283902080548451600294821615610100026000190190911693909304601f81018390048302840183019094528383529192908301828280156101705780601f1061014557610100808354040283529160200191610170565b820191906000526020600020905b81548152906001019060200180831161015357829003601f168201915b505050505081565b6000805460408051602060026001851615610100026000190190941693909304601f810184900484028201840190925281815292918301828280156101705780601f106101455761010080835404028352916020019161017056fea264697066735822122068c30458ea1da7292130cface386ebe2353b4ae6edbc294b9685792be135ae3064736f6c634300060100334f776e61626c653a206e6577206f776e657220697320746865207a65726f2061646472657373a2646970667358221220efd3a98e5902490ad44defae4fd0682ccc394dfc0cf01d217eedf74b3771985564736f6c634300060100334f776e61626c653a206e6577206f776e657220697320746865207a65726f2061646472657373a26469706673582212204d77291369b4445dd2766dcb93b4645d75c1368be571633cbd8c90757322ea5e64736f6c63430006010033",
    "sourcePath": "d:/tutorials/Html_Css/My_Websites/ASP.Net Core/MedicalOperations/contracts/PatientsFactory.sol",
    "compiler": {
        "name": "solc",
        "version": "0.6.1+commit.e6f7d5a4"
    },
    "functionHashes": {
        "addClinic(address)": "16aaa4c0",
        "addressToPatient(address)": "f3de63e6",
        "clinics(address)": "64607751",
        "isOwner()": "8f32d59b",
        "newPatient(address)": "fa571782",
        "owner()": "8da5cb5b",
        "patientsNum()": "286afaf2",
        "renounceOwnership()": "715018a6",
        "transferOwnership(address)": "f2fde38b"
    },
    "gasEstimates": {
        "creation": {
            "codeDepositCost": "974000",
            "executionCost": "infinite",
            "totalCost": "infinite"
        },
        "external": {
            "addClinic(address)": "22033",
            "addressToPatient(address)": "1229",
            "clinics(address)": "1181",
            "isOwner()": "1102",
            "newPatient(address)": "infinite",
            "owner()": "1037",
            "patientsNum()": "1021",
            "renounceOwnership()": "24312",
            "transferOwnership(address)": "infinite"
        }
    }
}